:100000000004001003010000D5000000D70000002C
:1000100000000000000000000000000000000000E0
:10002000000000000000000000000000D9000000F7
:100030000000000000000000DB000000DD00000008
:10004000DF000000DF00000000000000DF00000013
:10005000DF000000DF0000000000000000000000E2
:100060002D020000DF0000008D030000DF00000013
:10007000DF000000DF00000000000000DF000000E3
:100080000000000000000000000000000000000070
:100090000000000000000000000000000000000060
:1000A000DF000000DF000000DF000000DF000000D4
:1000B000DF000000DF000000DF000000DF000000C4
:1000C0007C0800000000001000000000000000108C
:1000D00038000000FEE7FEE7FEE7FEE7FEE7FEE78A
:1000E000002310B5934203D21C585C500433F9E747
:1000F00010BD00238B4203D200221A500433F9E7CB
:10010000704710B50C4C0D4B9C4206D220686168BC
:10011000A268FFF7E5FF0C34F5E7094B9C4205D2D6
:1001200020686168FFF7E5FF0834F6E700F08CF916
:1001300000F036FBFEE7C046C0000000CC00000027
:10014000D40000000023024A1370024A1370704763
:100150001E0000101D000010074B1A78511C19706A
:1001600006498A5C02700020054A1B7812789A4280
:1001700040414042C0B270471D0000101F000010F7
:100180001C00001006490B785A1CD2B20A700549AF
:10019000C854054B1B7893428041C0B27047C0469B
:1001A0001E0000100C0000102F00001008B5054BB9
:1001B0001B68002B04D0044A1078044A1178984731
:1001C00008BDC046000000101E0000101D000010F9
:1001D000014B18607047C0460000001038B50F4B47
:1001E000051C0F4C19700F4B201C1A7000F0A2F95F
:1001F000FE236D00A564A26C1340A36480231B0240
:1002000063600133FF33A3601D2322681340022281
:1002100013432360044BFE321A6038BD2F000010D8
:10022000000005401C00001000E100E0084A38B55D
:10023000151C084CA369134081221202134206D0F8
:100240000448054900F0B4F9A3692B40F4E738BD30
:1002500051890B03000005402408000010B5002858
:1002600018D00D4B0D4C59781B7809021943201CEE
:1002700000F014FA80239B00E058CF3BFF3B58432B
:10028000642100F094FA81239B00E0506268044BE3
:100290001340636010BDC0460C00001000400050C9
:1002A000FB1FFB1F38B5802500F0D2F8324A04202E
:1002B000D36F08241B031B0B2B43D367E0222F496A
:1002C00052008B58DB05DB0D03438B508B583C30C1
:1002D000DB05DB0D23438B508B58DB05DB0D034324
:1002E0008B503330002100F007FA281C012100F068
:1002F00003FA6320022100F0FFF9A02380221020DE
:100300001B0692019958603D214399509958014329
:1003100099509958294399508A2292019C5098509B
:10032000174C9D501748FFF753FF0022022114205D
:10033000FFF754FF201C00F073F9FA21201C8900FC
:1003400000F0ACF980239B00E058CF3BFF3B5843C3
:10035000642100F02CFA81239B00E0500022201C35
:10036000012100F075F96268074B1340636000F0EB
:100370002DF830BFFDE7C0460480044000C00040B7
:10038000004000505D020000FB1FFB1F0B4B10B52F
:100390001C681C60E30704D5094B1B68002B00D0C8
:1003A0009847630704D5074B1B68002B00D098477C
:1003B000230702D50022044B1A7010BDF8400040FC
:1003C0000400001008000010300000108021184ABE
:1003D000C900101DC36F30B51B031B0B0B43C36754
:1003E0005068144B144D0340802053605368134CE5
:1003F000DB04DB0C03435360012211488368134084
:1004000083600220AB6813400343AB60A36800180D
:1004100013400343A3600623A86818401043A86054
:10042000A06803401343A360064B196030BDC0466B
:10043000008004407F1F000020400040304000400A
:100440000040004000E100E008B500F091F908BD6F
:1004500008B500F063F8014B186008BD34000010C7
:100460000022034B18645A6401325A647047C04634
:100470000080044008B5074B596A1F23CA05120FB4
:100480001940054B920001314900D05800F08FF916
:1004900008BDC046008004403C080000084B1A6CB0
:1004A00003231340012B06D0032B06D00020002B82
:1004B00005D1044803E0044B00E0044B1868704782
:1004C00000800440001BB70034080000380800001A
:1004D000044B10B59C68FFF7E1FF1F232340013355
:1004E000584310BD0080044008B50A4B1A6F03231F
:1004F0001340022B06D0032B07D0012B08D1FFF7A6
:10050000CDFF06E0FFF7B6FF03E0FFF7E1FF00E0F5
:10051000014808BD00800440001BB70008B5FFF784
:10052000E3FF034B996FC9B200F041F908BDC04623
:100530000080044030B5184C1622A04208D0174B5A
:100540000132984204D0164B023A984200D0103A39
:10055000012595401349CB6F1B031B0B2B43CB6726
:100560000F21A04208D00D4B0131984204D00C4B12
:100570000239984200D0083901238B40191C0A4ADD
:100580000A4B50680B43984350605368DB04DB0C04
:100590000B43536030BDC046000007400040074099
:1005A00000400540048004400080044000E0FFFF5C
:1005B000802337B582691B02041C1A4203D04360B2
:1005C000CB68984725E043685B059B0F012B18D04B
:1005D000002B09D0022B1CD16B46DD1D281C4B685B
:1005E00098472B78636412E043689B049B0F123397
:1005F0009B0018586B460006400ED8710B68984750
:1006000007E06B46406CC0B2D8718B6898470028F1
:1006100003D101230020236401E0022323643EBDB3
:100620008020094940000B1DDA6F1203120B0243B0
:10063000DA674B68054A1A404A604B68DB04DB0CFA
:1006400003434B607047C04600800440FF1E00001B
:1006500030B58024C125CB006401C3180C43AD0024
:100660005C510124043D5C51A025D300C318ED006A
:100670005C51251C8D40291C074DA2405951032374
:1006800093409440DA43816D994321438165416DE4
:10069000D3B20B40436530BD0405000038B50D1CD6
:1006A000041CFFF73BFF291C00F081F862680E4B29
:1006B0000E491A400A436260626813400C4A1343B1
:1006C000221C63600023FC32E36453608023802299
:1006D0009B00E05005335201FF33E2500122043BFE
:1006E000E250044B236038BDFF1FFF1F04000400CD
:1006F00008000800010002000F2310B5FF2403408A
:10070000DB009C40054A000980008018026899407F
:10071000A243131C0B43036010BDC04600C0004041
:100720007FB5022000F028F80020FFF799FE0C4B5F
:1007300002A81A6901221A610A4B694602930A4B00
:1007400003930023049396231B010593074B1B6817
:10075000DB681B689847009B002BFDD107B000BDEC
:1007600000000440E02E0000C05D0000F81FFF1FE5
:1007700008B5FFF7D5FF08BD8E2110B5054C8900DF
:100780006358054A134002409343044A134363509D
:1007900010BDC04600800440EF800000106D0000D6
:1007A00008B5FFF77FFD08BD03000B4321D40029E6
:1007B00031D00122D207030901E00901120999424F
:1007C000FBD9430801E0490052089942FBD900E0F7
:1007D0004908401A07D35241FAD3014610467047E0
:1007E00049084018F7D29218FAD34018014610462B
:1007F0007047CB0F00D04942021000D54042534011
:1008000008B5FFF7D4FF0CBC521000D34042002AB9
:1008100000D549421847F446002000F001F860472F
:1008200070470000450100005901000085010000EB
:10083000AD010000001BB700000000000000000038
:10084000C027090090051000C05C1500F0B31A0025
:10085000200B2000009F2400E0322900C0C62D009C
:1008600050973100E06735007038390000093D00CD
:0C0870004016400080234300C0304600CA
:0400000300000103F5
:00000001FF
