:100000000004001003010000D5000000D70000002C
:1000100000000000000000000000000000000000E0
:10002000000000000000000000000000D9000000F7
:100030000000000000000000DB000000DD00000008
:10004000DF000000DF00000000000000DF00000013
:10005000DF000000DF0000000000000000000000E2
:10006000DF000000DF00000045010000DF000000AD
:10007000DF000000DF00000000000000DF000000E3
:100080000000000000000000000000000000000070
:100090000000000000000000000000000000000060
:1000A000DF000000DF000000DF000000DF000000D4
:1000B000DF000000DF000000DF0000005D02000044
:1000C000D806000000000010000000000000001032
:1000D00010000000FEE7FEE7FEE7FEE7FEE7FEE7B2
:1000E000002310B5934203D21C585C500433F9E747
:1000F00010BD00238B4203D200221A500433F9E7CB
:10010000704710B50C4C0D4B9C4206D220686168BC
:10011000A268FFF7E5FF0C34F5E7094B9C4205D2D6
:1001200020686168FFF7E5FF0834F6E700F038F96A
:1001300000F06CFAFEE7C046C0000000CC000000F2
:10014000D40000000B4B10B51C681C60E30704D5FD
:10015000094B1B68002B00D09847630704D5074B59
:100160001B68002B00D09847230702D50022044BC0
:100170001A7010BDF840004000000010040000108C
:10018000080000108021184AC900101DC36F30B547
:100190001B031B0B0B43C3675068144B144D0340E8
:1001A000802053605368134CDB04DB0C0343536023
:1001B000012211488368134083600220AB6813401A
:1001C0000343AB60A368001813400343A3600623F6
:1001D000A86818401043A860A06803401343A360B8
:1001E000064B196030BDC046008004407F1F0000F0
:1001F00020400040304000400040004000E100E06E
:10020000024B1860024B19607047C0462040004006
:10021000040000108623A0229B011206D158FA2365
:1002200010B589080B4C9B0001315943201C00F08C
:100230006BF980239B00E058CF3BFF3B5843642180
:1002400000F0EBF981239B00E0506268024B134001
:10025000636010BD00400050FB1FFB1F8022FA218D
:1002600008B5064B89005A62054B186800F0D5F9AD
:10027000642304495843FFF7C3FF08BD004000A0B2
:100280000C00001015020000F8B5802600F08CF874
:10029000E02204204025384C3849E36F52001B030C
:1002A0001B0B3343E3678B58354FDB05DB0D0343F3
:1002B0008B508B580018DB05DB0D03438B508B589C
:1002C0005B30DB05DB0D2B438B50002100F04AF93E
:1002D000E26F2C4B381C1340E36700F0D7F8FA218B
:1002E000381C890000F010F980239B00F858CF3BA0
:1002F000FF3B5843642100F090F981239B00F850A4
:100300000121381C002200F0D9F87A681E4B4021E8
:10031000134080227B60E36FD2021B031B0B13434D
:10032000E3671A4B49429A692A439A615A692A43F8
:100330005A611A692A431A61DA681543DD60E26F6F
:10034000134B1340E367A022822312069B01D15076
:10035000FFF718FFCA2302210E4A5B00D1507F220B
:100360000D4B19680A401A6080229E605E610B4B3B
:1003700012061A6030BFFDE70480044000C0004050
:10038000004000507FFF0F00FB1FFB1F0040044098
:10039000FFFF0B0000800440004000A000E100E0EF
:1003A00008B500F01BF908BD08B500F063F8014B73
:1003B000186008BD0C0000100022034B18645A643A
:1003C00001325A647047C0460080044008B5074BAC
:1003D000596A1F23CA05120F1940054B92000131BB
:1003E0004900D05800F019F908BDC046008004400B
:1003F00098060000084B1A6C03231340012B06D00B
:10040000032B06D00020002B05D1044803E0044B49
:1004100000E0044B1868704700800440001BB700E0
:100420009006000094060000044B10B59C68FFF78E
:10043000E1FF1F2323400133584310BD00800440D7
:1004400008B50A4B1A6F03231340022B06D0032B67
:1004500007D0012B08D1FFF7CDFF06E0FFF7B6FF6D
:1004600003E0FFF7E1FF00E0014808BD0080044021
:10047000001BB70008B5FFF7E3FF034B996FC9B244
:1004800000F0CBF808BDC046008004408020094938
:1004900040000B1DDA6F1203120B0243DA674B6840
:1004A000054A1A404A604B68DB04DB0C03434B608F
:1004B0007047C04600800440FF1E000030B5802415
:1004C000C125CB006401C3180C43AD005C5101246D
:1004D000043D5C51A025D300C318ED005C51251CE0
:1004E0008D40291C074DA24059510323934094404D
:1004F000DA43816D994321438165416DD3B20B404D
:10050000436530BD0405000038B50D1C041CFFF721
:10051000B1FF291C00F081F862680E4B0E491A40A9
:100520000A436260626813400C4A1343221C6360F2
:100530000023FC32E3645360802380229B00E05060
:1005400005335201FF33E2500122043BE250044BD9
:10055000236038BDFF1FFF1F0400040008000800CF
:10056000010002000F2310B5FF240340DB009C4074
:10057000054A00098000801802689940A243131CB4
:100580000B43036010BDC04600C000407FB5022091
:1005900000F028F80020FFF70FFF0C4B02A81A69A3
:1005A00001221A610A4B694602930A4B0393002306
:1005B000049396231B010593074B1B68DB681B689C
:1005C0009847009B002BFDD107B000BD0000044000
:1005D000E02E0000C05D0000F81FFF1F08B5FFF708
:1005E000D5FF08BD8E2110B5054C89006358054A1A
:1005F000134002409343044A1343635010BDC04666
:1006000000800440EF800000106D000008B5FFF787
:100610003BFE08BD03000B4321D4002931D0012249
:10062000D207030901E0090112099942FBD94308E5
:1006300001E0490052089942FBD900E04908401AFC
:1006400007D35241FAD30146104670474908401873
:10065000F7D29218FAD34018014610467047CB0FD4
:1006600000D04942021000D54042534008B5FFF780
:10067000D4FF0CBC521000D34042002A00D549429E
:100680001847F446002000F001F86047704700006A
:10069000001BB7000000000000000000C027090098
:1006A00090051000C05C1500F0B31A00200B20006C
:1006B000009F2400E0322900C0C62D005097310071
:1006C000E06735007038390000093D0040164000F1
:0806D00080234300C030460006
:0400000300000103F5
:00000001FF
